{
  "contractName": "BankLiability",
  "abi": [
    {
      "inputs": [
        {
          "internalType": "address",
          "name": "RPTokenAddr",
          "type": "address"
        }
      ],
      "stateMutability": "nonpayable",
      "type": "constructor"
    },
    {
      "anonymous": false,
      "inputs": [
        {
          "indexed": true,
          "internalType": "address",
          "name": "sender",
          "type": "address"
        },
        {
          "indexed": true,
          "internalType": "address",
          "name": "recipient",
          "type": "address"
        },
        {
          "indexed": false,
          "internalType": "uint256",
          "name": "amount",
          "type": "uint256"
        }
      ],
      "name": "Accept",
      "type": "event"
    },
    {
      "inputs": [
        {
          "internalType": "address",
          "name": "",
          "type": "address"
        }
      ],
      "name": "_liabilities",
      "outputs": [
        {
          "internalType": "int256",
          "name": "",
          "type": "int256"
        }
      ],
      "stateMutability": "view",
      "type": "function",
      "constant": true
    },
    {
      "inputs": [],
      "name": "_owner",
      "outputs": [
        {
          "internalType": "address",
          "name": "",
          "type": "address"
        }
      ],
      "stateMutability": "view",
      "type": "function",
      "constant": true
    },
    {
      "inputs": [
        {
          "internalType": "address",
          "name": "recipient",
          "type": "address"
        },
        {
          "internalType": "uint256",
          "name": "amount",
          "type": "uint256"
        }
      ],
      "name": "transferRequest",
      "outputs": [
        {
          "internalType": "bool",
          "name": "",
          "type": "bool"
        }
      ],
      "stateMutability": "nonpayable",
      "type": "function"
    },
    {
      "inputs": [
        {
          "internalType": "address",
          "name": "recipient",
          "type": "address"
        }
      ],
      "name": "revokeRequest",
      "outputs": [
        {
          "internalType": "bool",
          "name": "",
          "type": "bool"
        }
      ],
      "stateMutability": "nonpayable",
      "type": "function"
    },
    {
      "inputs": [
        {
          "internalType": "address",
          "name": "sender",
          "type": "address"
        }
      ],
      "name": "accept",
      "outputs": [
        {
          "internalType": "bool",
          "name": "",
          "type": "bool"
        }
      ],
      "stateMutability": "nonpayable",
      "type": "function"
    },
    {
      "inputs": [
        {
          "internalType": "address",
          "name": "addr",
          "type": "address"
        },
        {
          "internalType": "uint256",
          "name": "amount",
          "type": "uint256"
        }
      ],
      "name": "increaseLiability",
      "outputs": [],
      "stateMutability": "nonpayable",
      "type": "function"
    },
    {
      "inputs": [
        {
          "internalType": "address",
          "name": "addr",
          "type": "address"
        },
        {
          "internalType": "uint256",
          "name": "amount",
          "type": "uint256"
        }
      ],
      "name": "decreaseLiability",
      "outputs": [],
      "stateMutability": "nonpayable",
      "type": "function"
    },
    {
      "inputs": [
        {
          "internalType": "address",
          "name": "recipient",
          "type": "address"
        }
      ],
      "name": "getTransferRequest",
      "outputs": [
        {
          "internalType": "uint256",
          "name": "",
          "type": "uint256"
        }
      ],
      "stateMutability": "view",
      "type": "function",
      "constant": true
    },
    {
      "inputs": [],
      "name": "getTransferRequestKeys",
      "outputs": [
        {
          "internalType": "address[]",
          "name": "",
          "type": "address[]"
        }
      ],
      "stateMutability": "view",
      "type": "function",
      "constant": true
    },
    {
      "inputs": [
        {
          "internalType": "address",
          "name": "sender",
          "type": "address"
        }
      ],
      "name": "getConfirmRemittance",
      "outputs": [
        {
          "internalType": "uint256",
          "name": "",
          "type": "uint256"
        }
      ],
      "stateMutability": "view",
      "type": "function",
      "constant": true
    },
    {
      "inputs": [],
      "name": "getConfirmRemittanceKeys",
      "outputs": [
        {
          "internalType": "address[]",
          "name": "",
          "type": "address[]"
        }
      ],
      "stateMutability": "view",
      "type": "function",
      "constant": true
    }
  ],
  "bytecode": "0x60806040523480156200001157600080fd5b506040516200289b3803806200289b833981810160405281019062000037919062000140565b62000047620000ce60201b60201c565b6000806101000a81548173ffffffffffffffffffffffffffffffffffffffff021916908373ffffffffffffffffffffffffffffffffffffffff16021790555080600160006101000a81548173ffffffffffffffffffffffffffffffffffffffff021916908373ffffffffffffffffffffffffffffffffffffffff1602179055505062000172565b600033905090565b600080fd5b600073ffffffffffffffffffffffffffffffffffffffff82169050919050565b60006200010882620000db565b9050919050565b6200011a81620000fb565b81146200012657600080fd5b50565b6000815190506200013a816200010f565b92915050565b600060208284031215620001595762000158620000d6565b5b6000620001698482850162000129565b91505092915050565b61271980620001826000396000f3fe608060405234801561001057600080fd5b50600436106100a95760003560e01c8063a84df20111610071578063a84df2011461018a578063b1843602146101ba578063b2bdfa7b146101d8578063b9ff644a146101f6578063ddd404fe14610212578063ed03a55314610242576100a9565b80633d8576cc146100ae57806371349647146100de5780638408ab851461010e5780639c23c86a1461013e5780639f0059201461015a575b600080fd5b6100c860048036038101906100c39190611d0d565b610260565b6040516100d59190611d53565b60405180910390f35b6100f860048036038101906100f39190611d9a565b6103d2565b6040516101059190611df5565b60405180910390f35b61012860048036038101906101239190611d0d565b610957565b6040516101359190611e29565b60405180910390f35b61015860048036038101906101539190611d9a565b61096f565b005b610174600480360381019061016f9190611d0d565b610aca565b6040516101819190611df5565b60405180910390f35b6101a4600480360381019061019f9190611d0d565b610e91565b6040516101b19190611df5565b60405180910390f35b6101c2611133565b6040516101cf9190611f02565b60405180910390f35b6101e06112e7565b6040516101ed9190611f33565b60405180910390f35b610210600480360381019061020b9190611d9a565b61130b565b005b61022c60048036038101906102279190611d0d565b611466565b6040516102399190611d53565b60405180910390f35b61024a6115d8565b6040516102579190611f02565b60405180910390f35b6000600160009054906101000a900473ffffffffffffffffffffffffffffffffffffffff1673ffffffffffffffffffffffffffffffffffffffff166349d407c96102a861178c565b6040518263ffffffff1660e01b81526004016102c49190611f33565b602060405180830381865afa1580156102e1573d6000803e3d6000fd5b505050506040513d601f19601f820116820180604052508101906103059190611f7a565b610344576040517f08c379a000000000000000000000000000000000000000000000000000000000815260040161033b90612004565b60405180910390fd5b6003600061035061178c565b73ffffffffffffffffffffffffffffffffffffffff1673ffffffffffffffffffffffffffffffffffffffff16815260200190815260200160002060008373ffffffffffffffffffffffffffffffffffffffff1673ffffffffffffffffffffffffffffffffffffffff168152602001908152602001600020600001549050919050565b6000600160009054906101000a900473ffffffffffffffffffffffffffffffffffffffff1673ffffffffffffffffffffffffffffffffffffffff166349d407c961041a61178c565b6040518263ffffffff1660e01b81526004016104369190611f33565b602060405180830381865afa158015610453573d6000803e3d6000fd5b505050506040513d601f19601f820116820180604052508101906104779190611f7a565b6104b6576040517f08c379a00000000000000000000000000000000000000000000000000000000081526004016104ad90612004565b60405180910390fd5b600160009054906101000a900473ffffffffffffffffffffffffffffffffffffffff1673ffffffffffffffffffffffffffffffffffffffff166349d407c9846040518263ffffffff1660e01b81526004016105119190611f33565b602060405180830381865afa15801561052e573d6000803e3d6000fd5b505050506040513d601f19601f820116820180604052508101906105529190611f7a565b610591576040517f08c379a000000000000000000000000000000000000000000000000000000000815260040161058890612096565b60405180910390fd5b600082036105d4576040517f08c379a00000000000000000000000000000000000000000000000000000000081526004016105cb90612102565b60405180910390fd5b6000600360006105e261178c565b73ffffffffffffffffffffffffffffffffffffffff1673ffffffffffffffffffffffffffffffffffffffff16815260200190815260200160002060008573ffffffffffffffffffffffffffffffffffffffff1673ffffffffffffffffffffffffffffffffffffffff168152602001908152602001600020600001541461069d576040517f08c379a000000000000000000000000000000000000000000000000000000000815260040161069490612194565b60405180910390fd5b600460006106a961178c565b73ffffffffffffffffffffffffffffffffffffffff1673ffffffffffffffffffffffffffffffffffffffff168152602001908152602001600020839080600181540180825580915050600190039060005260206000200160009091909190916101000a81548173ffffffffffffffffffffffffffffffffffffffff021916908373ffffffffffffffffffffffffffffffffffffffff160217905550600560008473ffffffffffffffffffffffffffffffffffffffff1673ffffffffffffffffffffffffffffffffffffffff16815260200190815260200160002061078b61178c565b9080600181540180825580915050600190039060005260206000200160009091909190916101000a81548173ffffffffffffffffffffffffffffffffffffffff021916908373ffffffffffffffffffffffffffffffffffffffff160217905550604051806060016040528083815260200160016004600061080a61178c565b73ffffffffffffffffffffffffffffffffffffffff1673ffffffffffffffffffffffffffffffffffffffff1681526020019081526020016000208054905061085291906121e3565b81526020016001600560008773ffffffffffffffffffffffffffffffffffffffff1673ffffffffffffffffffffffffffffffffffffffff168152602001908152602001600020805490506108a691906121e3565b815250600360006108b561178c565b73ffffffffffffffffffffffffffffffffffffffff1673ffffffffffffffffffffffffffffffffffffffff16815260200190815260200160002060008573ffffffffffffffffffffffffffffffffffffffff1673ffffffffffffffffffffffffffffffffffffffff1681526020019081526020016000206000820151816000015560208201518160010155604082015181600201559050506001905092915050565b60026020528060005260406000206000915090505481565b60008054906101000a900473ffffffffffffffffffffffffffffffffffffffff1673ffffffffffffffffffffffffffffffffffffffff166109ae61178c565b73ffffffffffffffffffffffffffffffffffffffff161480610a245750600160009054906101000a900473ffffffffffffffffffffffffffffffffffffffff1673ffffffffffffffffffffffffffffffffffffffff16610a0c61178c565b73ffffffffffffffffffffffffffffffffffffffff16145b610a2d57600080fd5b60008103610a70576040517f08c379a0000000000000000000000000000000000000000000000000000000008152600401610a6790612263565b60405180910390fd5b80600260008473ffffffffffffffffffffffffffffffffffffffff1673ffffffffffffffffffffffffffffffffffffffff1681526020019081526020016000206000828254610abf9190612283565b925050819055505050565b6000600160009054906101000a900473ffffffffffffffffffffffffffffffffffffffff1673ffffffffffffffffffffffffffffffffffffffff166349d407c9610b1261178c565b6040518263ffffffff1660e01b8152600401610b2e9190611f33565b602060405180830381865afa158015610b4b573d6000803e3d6000fd5b505050506040513d601f19601f82011682018060405250810190610b6f9190611f7a565b610bae576040517f08c379a0000000000000000000000000000000000000000000000000000000008152600401610ba590612004565b60405180910390fd5b600160009054906101000a900473ffffffffffffffffffffffffffffffffffffffff1673ffffffffffffffffffffffffffffffffffffffff166349d407c9836040518263ffffffff1660e01b8152600401610c099190611f33565b602060405180830381865afa158015610c26573d6000803e3d6000fd5b505050506040513d601f19601f82011682018060405250810190610c4a9190611f7a565b610c89576040517f08c379a0000000000000000000000000000000000000000000000000000000008152600401610c8090612389565b60405180910390fd5b6000600360008473ffffffffffffffffffffffffffffffffffffffff1673ffffffffffffffffffffffffffffffffffffffff1681526020019081526020016000206000610cd461178c565b73ffffffffffffffffffffffffffffffffffffffff1673ffffffffffffffffffffffffffffffffffffffff16815260200190815260200160002060000154905060008103610d57576040517f08c379a0000000000000000000000000000000000000000000000000000000008152600401610d4e9061241b565b60405180910390fd5b80600260008573ffffffffffffffffffffffffffffffffffffffff1673ffffffffffffffffffffffffffffffffffffffff1681526020019081526020016000206000828254610da69190612283565b925050819055508060026000610dba61178c565b73ffffffffffffffffffffffffffffffffffffffff1673ffffffffffffffffffffffffffffffffffffffff1681526020019081526020016000206000828254610e03919061243b565b92505081905550610e1b83610e1661178c565b611794565b8273ffffffffffffffffffffffffffffffffffffffff16610e3a61178c565b73ffffffffffffffffffffffffffffffffffffffff167ffd21f523f83f9e9994366516baa84b6ce04a7400fc3cbe841ac50bfe9f02ee2d83604051610e7f9190611d53565b60405180910390a36001915050919050565b6000600160009054906101000a900473ffffffffffffffffffffffffffffffffffffffff1673ffffffffffffffffffffffffffffffffffffffff166349d407c9610ed961178c565b6040518263ffffffff1660e01b8152600401610ef59190611f33565b602060405180830381865afa158015610f12573d6000803e3d6000fd5b505050506040513d601f19601f82011682018060405250810190610f369190611f7a565b610f75576040517f08c379a0000000000000000000000000000000000000000000000000000000008152600401610f6c90612004565b60405180910390fd5b600160009054906101000a900473ffffffffffffffffffffffffffffffffffffffff1673ffffffffffffffffffffffffffffffffffffffff166349d407c9836040518263ffffffff1660e01b8152600401610fd09190611f33565b602060405180830381865afa158015610fed573d6000803e3d6000fd5b505050506040513d601f19601f820116820180604052508101906110119190611f7a565b611050576040517f08c379a000000000000000000000000000000000000000000000000000000000815260040161104790612541565b60405180910390fd5b60006003600061105e61178c565b73ffffffffffffffffffffffffffffffffffffffff1673ffffffffffffffffffffffffffffffffffffffff16815260200190815260200160002060008473ffffffffffffffffffffffffffffffffffffffff1673ffffffffffffffffffffffffffffffffffffffff1681526020019081526020016000206000015411611119576040517f08c379a0000000000000000000000000000000000000000000000000000000008152600401611110906125f9565b60405180910390fd5b61112a61112461178c565b83611794565b60019050919050565b6060600160009054906101000a900473ffffffffffffffffffffffffffffffffffffffff1673ffffffffffffffffffffffffffffffffffffffff166349d407c961117b61178c565b6040518263ffffffff1660e01b81526004016111979190611f33565b602060405180830381865afa1580156111b4573d6000803e3d6000fd5b505050506040513d601f19601f820116820180604052508101906111d89190611f7a565b611217576040517f08c379a000000000000000000000000000000000000000000000000000000000815260040161120e90612004565b60405180910390fd5b6005600061122361178c565b73ffffffffffffffffffffffffffffffffffffffff1673ffffffffffffffffffffffffffffffffffffffff1681526020019081526020016000208054806020026020016040519081016040528092919081815260200182805480156112dd57602002820191906000526020600020905b8160009054906101000a900473ffffffffffffffffffffffffffffffffffffffff1673ffffffffffffffffffffffffffffffffffffffff1681526020019060010190808311611293575b5050505050905090565b60008054906101000a900473ffffffffffffffffffffffffffffffffffffffff1681565b60008054906101000a900473ffffffffffffffffffffffffffffffffffffffff1673ffffffffffffffffffffffffffffffffffffffff1661134a61178c565b73ffffffffffffffffffffffffffffffffffffffff1614806113c05750600160009054906101000a900473ffffffffffffffffffffffffffffffffffffffff1673ffffffffffffffffffffffffffffffffffffffff166113a861178c565b73ffffffffffffffffffffffffffffffffffffffff16145b6113c957600080fd5b6000810361140c576040517f08c379a000000000000000000000000000000000000000000000000000000000815260040161140390612665565b60405180910390fd5b80600260008473ffffffffffffffffffffffffffffffffffffffff1673ffffffffffffffffffffffffffffffffffffffff168152602001908152602001600020600082825461145b919061243b565b925050819055505050565b6000600160009054906101000a900473ffffffffffffffffffffffffffffffffffffffff1673ffffffffffffffffffffffffffffffffffffffff166349d407c96114ae61178c565b6040518263ffffffff1660e01b81526004016114ca9190611f33565b602060405180830381865afa1580156114e7573d6000803e3d6000fd5b505050506040513d601f19601f8201168201806040525081019061150b9190611f7a565b61154a576040517f08c379a000000000000000000000000000000000000000000000000000000000815260040161154190612004565b60405180910390fd5b600360008373ffffffffffffffffffffffffffffffffffffffff1673ffffffffffffffffffffffffffffffffffffffff168152602001908152602001600020600061159361178c565b73ffffffffffffffffffffffffffffffffffffffff1673ffffffffffffffffffffffffffffffffffffffff168152602001908152602001600020600001549050919050565b6060600160009054906101000a900473ffffffffffffffffffffffffffffffffffffffff1673ffffffffffffffffffffffffffffffffffffffff166349d407c961162061178c565b6040518263ffffffff1660e01b815260040161163c9190611f33565b602060405180830381865afa158015611659573d6000803e3d6000fd5b505050506040513d601f19601f8201168201806040525081019061167d9190611f7a565b6116bc576040517f08c379a00000000000000000000000000000000000000000000000000000000081526004016116b390612004565b60405180910390fd5b600460006116c861178c565b73ffffffffffffffffffffffffffffffffffffffff1673ffffffffffffffffffffffffffffffffffffffff16815260200190815260200160002080548060200260200160405190810160405280929190818152602001828054801561178257602002820191906000526020600020905b8160009054906101000a900473ffffffffffffffffffffffffffffffffffffffff1673ffffffffffffffffffffffffffffffffffffffff1681526020019060010190808311611738575b5050505050905090565b600033905090565b6000600460008473ffffffffffffffffffffffffffffffffffffffff1673ffffffffffffffffffffffffffffffffffffffff16815260200190815260200160002090506000600360008573ffffffffffffffffffffffffffffffffffffffff1673ffffffffffffffffffffffffffffffffffffffff16815260200190815260200160002060008473ffffffffffffffffffffffffffffffffffffffff1673ffffffffffffffffffffffffffffffffffffffff1681526020019081526020016000206001015490506000826001848054905061186f91906121e3565b815481106118805761187f612685565b5b9060005260206000200160009054906101000a900473ffffffffffffffffffffffffffffffffffffffff169050808383815481106118c1576118c0612685565b5b9060005260206000200160006101000a81548173ffffffffffffffffffffffffffffffffffffffff021916908373ffffffffffffffffffffffffffffffffffffffff16021790555081600360008773ffffffffffffffffffffffffffffffffffffffff1673ffffffffffffffffffffffffffffffffffffffff16815260200190815260200160002060008373ffffffffffffffffffffffffffffffffffffffff1673ffffffffffffffffffffffffffffffffffffffff168152602001908152602001600020600101819055508280548061199e5761199d6126b4565b5b6001900381819060005260206000200160006101000a81549073ffffffffffffffffffffffffffffffffffffffff02191690559055600560008573ffffffffffffffffffffffffffffffffffffffff1673ffffffffffffffffffffffffffffffffffffffff1681526020019081526020016000209250600360008673ffffffffffffffffffffffffffffffffffffffff1673ffffffffffffffffffffffffffffffffffffffff16815260200190815260200160002060008573ffffffffffffffffffffffffffffffffffffffff1673ffffffffffffffffffffffffffffffffffffffff1681526020019081526020016000206002015491508260018480549050611aa891906121e3565b81548110611ab957611ab8612685565b5b9060005260206000200160009054906101000a900473ffffffffffffffffffffffffffffffffffffffff16905080838381548110611afa57611af9612685565b5b9060005260206000200160006101000a81548173ffffffffffffffffffffffffffffffffffffffff021916908373ffffffffffffffffffffffffffffffffffffffff16021790555081600360008373ffffffffffffffffffffffffffffffffffffffff1673ffffffffffffffffffffffffffffffffffffffff16815260200190815260200160002060008673ffffffffffffffffffffffffffffffffffffffff1673ffffffffffffffffffffffffffffffffffffffff1681526020019081526020016000206002018190555082805480611bd757611bd66126b4565b5b6001900381819060005260206000200160006101000a81549073ffffffffffffffffffffffffffffffffffffffff02191690559055600360008673ffffffffffffffffffffffffffffffffffffffff1673ffffffffffffffffffffffffffffffffffffffff16815260200190815260200160002060008573ffffffffffffffffffffffffffffffffffffffff1673ffffffffffffffffffffffffffffffffffffffff1681526020019081526020016000206000808201600090556001820160009055600282016000905550505050505050565b600080fd5b600073ffffffffffffffffffffffffffffffffffffffff82169050919050565b6000611cda82611caf565b9050919050565b611cea81611ccf565b8114611cf557600080fd5b50565b600081359050611d0781611ce1565b92915050565b600060208284031215611d2357611d22611caa565b5b6000611d3184828501611cf8565b91505092915050565b6000819050919050565b611d4d81611d3a565b82525050565b6000602082019050611d686000830184611d44565b92915050565b611d7781611d3a565b8114611d8257600080fd5b50565b600081359050611d9481611d6e565b92915050565b60008060408385031215611db157611db0611caa565b5b6000611dbf85828601611cf8565b9250506020611dd085828601611d85565b9150509250929050565b60008115159050919050565b611def81611dda565b82525050565b6000602082019050611e0a6000830184611de6565b92915050565b6000819050919050565b611e2381611e10565b82525050565b6000602082019050611e3e6000830184611e1a565b92915050565b600081519050919050565b600082825260208201905092915050565b6000819050602082019050919050565b611e7981611ccf565b82525050565b6000611e8b8383611e70565b60208301905092915050565b6000602082019050919050565b6000611eaf82611e44565b611eb98185611e4f565b9350611ec483611e60565b8060005b83811015611ef5578151611edc8882611e7f565b9750611ee783611e97565b925050600181019050611ec8565b5085935050505092915050565b60006020820190508181036000830152611f1c8184611ea4565b905092915050565b611f2d81611ccf565b82525050565b6000602082019050611f486000830184611f24565b92915050565b611f5781611dda565b8114611f6257600080fd5b50565b600081519050611f7481611f4e565b92915050565b600060208284031215611f9057611f8f611caa565b5b6000611f9e84828501611f65565b91505092915050565b600082825260208201905092915050565b7f596f7520617265206e6f7420612062616e6b0000000000000000000000000000600082015250565b6000611fee601283611fa7565b9150611ff982611fb8565b602082019050919050565b6000602082019050818103600083015261201d81611fe1565b9050919050565b7f4c696162696c6974793a20596f752063616e206f6e6c7920726571756573742060008201527f746f207472616e73666572206c696162696c69747920746f2062616e6b730000602082015250565b6000612080603e83611fa7565b915061208b82612024565b604082019050919050565b600060208201905081810360008301526120af81612073565b9050919050565b7f4c696162696c6974793a207472616e73666572207a65726f20616d6f756e7400600082015250565b60006120ec601f83611fa7565b91506120f7826120b6565b602082019050919050565b6000602082019050818103600083015261211b816120df565b9050919050565b7f4c696162696c6974793a20596f752063616e6e6f742073656e64206d756c746960008201527f706c6520726571756573747320746f207468652073616d652062616e6b000000602082015250565b600061217e603d83611fa7565b915061218982612122565b604082019050919050565b600060208201905081810360008301526121ad81612171565b9050919050565b7f4e487b7100000000000000000000000000000000000000000000000000000000600052601160045260246000fd5b60006121ee82611d3a565b91506121f983611d3a565b92508282101561220c5761220b6121b4565b5b828203905092915050565b7f4c696162696c6974793a206465637265617365207a65726f20616d6f756e7400600082015250565b600061224d601f83611fa7565b915061225882612217565b602082019050919050565b6000602082019050818103600083015261227c81612240565b9050919050565b600061228e82611e10565b915061229983611e10565b9250817f7fffffffffffffffffffffffffffffffffffffffffffffffffffffffffffffff038313600083121516156122d4576122d36121b4565b5b817f800000000000000000000000000000000000000000000000000000000000000003831260008312161561230c5761230b6121b4565b5b828201905092915050565b7f4c696162696c6974793a20596f752063616e206f6e6c7920616363657074207460008201527f686520726571756573742066726f6d2062616e6b730000000000000000000000602082015250565b6000612373603583611fa7565b915061237e82612317565b604082019050919050565b600060208201905081810360008301526123a281612366565b9050919050565b7f4c696162696c6974793a205468652073656e646572206469646e27742073656e60008201527f6420746865207472616e73666572207265717565737400000000000000000000602082015250565b6000612405603683611fa7565b9150612410826123a9565b604082019050919050565b60006020820190508181036000830152612434816123f8565b9050919050565b600061244682611e10565b915061245183611e10565b9250827f80000000000000000000000000000000000000000000000000000000000000000182126000841215161561248c5761248b6121b4565b5b827f7fffffffffffffffffffffffffffffffffffffffffffffffffffffffffffffff0182136000841216156124c4576124c36121b4565b5b828203905092915050565b7f4c696162696c6974793a20596f752063616e206f6e6c79207265766f6b65207460008201527f6865207265717565737420746f2062616e6b7300000000000000000000000000602082015250565b600061252b603383611fa7565b9150612536826124cf565b604082019050919050565b6000602082019050818103600083015261255a8161251e565b9050919050565b7f4c696162696c6974793a20596f752063616e6e6f74207265766f6b652074686560008201527f2072657175657374206265666f72652073656e64696e6720746865207265717560208201527f6573740000000000000000000000000000000000000000000000000000000000604082015250565b60006125e3604383611fa7565b91506125ee82612561565b606082019050919050565b60006020820190508181036000830152612612816125d6565b9050919050565b7f4c696162696c6974793a20696e637265617365207a65726f20616d6f756e7400600082015250565b600061264f601f83611fa7565b915061265a82612619565b602082019050919050565b6000602082019050818103600083015261267e81612642565b9050919050565b7f4e487b7100000000000000000000000000000000000000000000000000000000600052603260045260246000fd5b7f4e487b7100000000000000000000000000000000000000000000000000000000600052603160045260246000fdfea2646970667358221220325a6b29e9a49fef02e9a40fcd233ef46048edb718d02bb65ac76b3e97a8800064736f6c634300080d0033",
  "immutableReferences": {},
  "source": "// SPDX-License-Identifier: UNLICENSED\n\npragma solidity ^0.8.0;\n\nimport \"@openzeppelin/contracts/utils/Context.sol\";\n\ncontract BankLiability is Context {\n    address public _owner;\n    BL_RPToken private _rp;\n    // BL_Credit private _credit;\n    // int256 public _totalLiability;\n\n    mapping(address => int256) public _liabilities;\n\n    struct Request {\n        uint256 amount;\n        uint transferKeysIdx;\n        uint confirmKeysIdx;\n    }\n\n    mapping(address => mapping(address => Request)) private _transferRequest;\n    mapping(address => address[]) private _transferRequestKeys;\n    mapping(address => address[]) private _confirmRemittanceKeys;\n\n    /* event TransferRequest(\n        address indexed sender,\n        address indexed recipient,\n        uint256 amount\n    );\n    event RevokeRequest(address indexed sender, address indexed recipient); */\n    event Accept(\n        address indexed sender,\n        address indexed recipient,\n        uint256 amount\n    );\n\n    modifier onlyOwner() {\n        require(_msgSender() == _owner);\n        _;\n    }\n\n    modifier onlyBank() {\n        require(_rp._banks(_msgSender()), \"You are not a bank\");\n        _;\n    }\n\n    constructor(address RPTokenAddr) {\n        _owner = _msgSender();\n        _rp = BL_RPToken(RPTokenAddr);\n    }\n\n    /* function loadCredit(address addr) public onlyOwner {\n        _credit = BL_Credit(addr);\n    } */\n\n    function transferRequest(address recipient, uint256 amount) public onlyBank returns (bool) {\n        require(_rp._banks(recipient), \"Liability: You can only request to transfer liability to banks\");\n        require(amount != 0, \"Liability: transfer zero amount\");\n        require(_transferRequest[_msgSender()][recipient].amount == 0, \"Liability: You cannot send multiple requests to the same bank\");\n\n        _transferRequestKeys[_msgSender()].push(recipient);\n        _confirmRemittanceKeys[recipient].push(_msgSender());\n        _transferRequest[_msgSender()][recipient] = Request(amount, _transferRequestKeys[_msgSender()].length - 1, _confirmRemittanceKeys[recipient].length - 1);\n\n        // emit TransferRequest(_msgSender(), recipient, amount);\n        return true;\n    }\n\n    function deleteRequest(address sender, address recipient) internal {\n        address[] storage keys = _transferRequestKeys[sender];\n        uint rowToDelete = _transferRequest[sender][recipient].transferKeysIdx;\n        address keyToMove = keys[keys.length-1];\n        keys[rowToDelete] = keyToMove;\n        _transferRequest[sender][keyToMove].transferKeysIdx = rowToDelete;\n        keys.pop();\n\n        keys = _confirmRemittanceKeys[recipient];\n        rowToDelete = _transferRequest[sender][recipient].confirmKeysIdx;\n        keyToMove = keys[keys.length-1];\n        keys[rowToDelete] = keyToMove;\n        _transferRequest[keyToMove][recipient].confirmKeysIdx = rowToDelete;\n        keys.pop();\n        delete _transferRequest[sender][recipient];\n    }\n\n    function revokeRequest(address recipient) public onlyBank returns (bool) {\n        require(_rp._banks(recipient), \"Liability: You can only revoke the request to banks\");\n        require(_transferRequest[_msgSender()][recipient].amount > 0, \"Liability: You cannot revoke the request before sending the request\");\n\n        deleteRequest(_msgSender(), recipient);\n\n        // emit RevokeRequest(_msgSender(), recipient);\n        return true;\n    }\n\n    function accept(address sender) public onlyBank returns (bool) {\n        require(_rp._banks(sender), \"Liability: You can only accept the request from banks\");\n        uint256 amount = _transferRequest[sender][_msgSender()].amount;\n        require(amount != 0, \"Liability: The sender didn't send the transfer request\");\n        _liabilities[sender] += int256(amount);\n        _liabilities[_msgSender()] -= int256(amount);\n        \n        deleteRequest(sender, _msgSender());\n\n        // _credit.changeLoanLender(sender, _msgSender());\n\n        emit Accept(_msgSender(), sender, amount);\n        return true;\n    }\n\n    function increaseLiability(address addr, uint256 amount) public {\n        require(_msgSender() == _owner || _msgSender() == address(_rp));\n        require(amount != 0, \"Liability: increase zero amount\");\n        _liabilities[addr] -= int256(amount);\n        // _totalLiability -= int256(amount);\n    }\n\n    function decreaseLiability(address addr, uint256 amount) public {\n        require(_msgSender() == _owner || _msgSender() == address(_rp));\n        require(amount != 0, \"Liability: decrease zero amount\");\n        _liabilities[addr] += int256(amount);\n        // _totalLiability += int256(amount);\n    }\n\n    function getTransferRequest(address recipient) public view onlyBank returns (uint256) {\n        return _transferRequest[_msgSender()][recipient].amount;\n    }\n\n    function getTransferRequestKeys() public view onlyBank returns (address[] memory) {\n        return _transferRequestKeys[_msgSender()];\n    }\n\n    function getConfirmRemittance(address sender) public view onlyBank returns (uint256) {\n        return _transferRequest[sender][_msgSender()].amount;\n    }\n\n    function getConfirmRemittanceKeys() public view onlyBank returns (address[] memory) {\n        return _confirmRemittanceKeys[_msgSender()];\n    }    \n}\n\ncontract BL_RPToken {\n    function _banks(address) public view returns (bool) {}\n}\n\n/* contract BL_Credit {\n    function changeLoanLender(address, address) public {}\n} */\n",
  "sourcePath": "/Users/hc/Documents/Thesis/BCLP/src/contracts/BankLiability.sol",
  "compiler": {
    "name": "solc",
    "version": "0.8.13+commit.abaa5c0e.Emscripten.clang"
  },
  "schemaVersion": "3.4.3",
  "updatedAt": "2022-06-15T08:59:02.478Z",
  "networkType": "ethereum",
  "devdoc": {
    "kind": "dev",
    "methods": {},
    "version": 1
  },
  "userdoc": {
    "kind": "user",
    "methods": {},
    "version": 1
  }
}